:10000000007E00208D500100BB5201001F32000015
:1000100000000000000000000000000000000000E0
:10002000000000000000000000000000CD520100B0
:100030000000000000000000CF5201003532000037
:100040009F32000097330000E7330000E9330000DF
:10005000133400002534000037340000553400000C
:1000600061340000A1340000A3340000AB34000070
:10007000B3340000BB340000C3340000CB340000B4
:10008000D3340000DB340000FD34000005350000EF
:100090000D350000153500001D3500002535000028
:1000A0002D3500003935000041350000493500008C
:1000B000553500005D3500006535000071350000E4
:1004100010B501F0B1FA002001F0D0FC4F4C05E01E
:1004200001F03DFDFA20800001F05AFD207861784E
:100430000906090C08430005400FF1D101F03BFE0D
:100440009622D2004648C079811E49B245480068CC
:10045000454B5B6B984701F0DDFC012001F02BFE62
:10046000012001F0ABFC01F08DFA10BD80B53F4AD0
:1004700001F059FF02BD38B504000D00FF202870BF
:100480002070AA2068706070A878A070E878E0708A
:10049000E978091D2000FFF7E9FFEA78A21810713A
:1004A000000AE978611848714020E978611888717C
:1004B00031BD10B52E4801682E4C002901D0200016
:1004C00088472000083001F06FFF4105C90F0DD0AB
:1004D0002248017842781206120C114308220A437E
:1004E0000270120A4270012010F02AF92000083030
:1004F00001F05AFF0200210008311F48104001F0AE
:100500005FFF2000083001F04FFF0200210008319A
:100510001A48104001F054FF2000083001F044FF59
:100520000200210008311648104001F049FF200068
:10053000083001F039FF0200210008311148104055
:1005400001F03EFF2000083001F02EFF21000831AD
:100550000D4A0240100001F033FF10BDB40000202E
:1005600010020020A0060020C028002001A00000EA
:1005700030000020F0020020FFFDFFFFFFF7FFFF2B
:10058000FFFEFFFFFFFBFFFFFF0FFFFFF5B58BB087
:100590000C00002700260020C043099069468E7297
:1005A0000B988078C206D20E1C2A09D0062C00DCDB
:1005B000F8E0FF2C0EDC0B9AD278D21DA24210D1AB
:1005C0000B9A1278FF2A05D10B9A5278AA2A01D1E8
:1005D000C00901D10127A3E00B980019401E007843
:1005E000402800D0A0E2611E0B98FFF73FFF0028D3
:1005F00001D0022794E00B98007901900B98407984
:100600000090019800994018401EBD490691BD49CF
:1006100004910B998978C906C90E491E012919D977
:10062000891E55D0491E3DD0491E032914D9091FE2
:1006300036D0491E01290FD9C91E0DD0891E51D0AF
:100640000C3909D0491E50D0491E012904D9891EF0
:1006500055D064E05B2847D20B98807869460872D1
:100660000120097A890901425CD11F2202216B46CF
:100670001B7A1340032B01D000F0BFFD0B98C17013
:10068000C44908784A781206120C10430C99087174
:10069000C04908784A781206120C104300F05CFE3C
:1006A000742820E010281FD2BA4CBB480078207173
:1006B0000498007DE07102F0E9F821000C3101F0AE
:1006C0007FFE0698C07D20740698007E6074C3E7A4
:1006D000B04908784A781206120C10438007800F40
:1006E0000890B9E7FF28B7D36EE0AC480368002B49
:1006F00058D00C9A21000B98984700F0A1FEA84C06
:100700000B98C078042805D10B98001D01F08FFDCF
:100710002060A1E7A348006F03218843F8E703277F
:1007200000F060FEA0480390D14805900098801C1E
:100730009C490978CF4A0792CF4C6A46127AD20672
:10074000D20E521E59D0521E00D1CDE0521E00D101
:1007500070E2521E00D1E3E1521E01D100F0F4FB21
:10076000521E01D100F01BFC521E012A01D800F0DC
:100770003DFC921E00D119E1521E03D0521E00D141
:1007800005E2921E01D100F0DEFC921E00D175E15F
:100790000E3A01D100F008FD521E05D0521E01D1C3
:1007A00000F0F4FC00F04BFE0B98C07814280BD13D
:1007B00001F0F6F9002800D0DCE301210B98001DC0
:1007C00001F08AF9002801D10427D4E314210B9801
:1007D000001D02F0FDFA01F0E3F9002801D100F05C
:1007E00087FC6C4908784A781206120C1043802264
:1007F00002430A70120A4A7038E10B99C9788142A3
:1008000075D1CD4801F0D0FDC007019803D50B2864
:100810001FD200F0D9FD0328FBD30B2819D2C64CF8
:10082000200001F0C1FD020021000120104301F071
:10083000C7FD200001F0B8FD020021000C2082431A
:100840000420104301F0BCFD042221000B2002F023
:1008500043FA0022B9490B98019C009D04E0831DD6
:100860009B5CA6188B55521CAA42F8D30B904948A2
:10087000027841780906090C0A43B149B148120AC5
:10088000D20703D50A784243497802E08A78424386
:10089000C9784143AC48816642660026A74871008A
:1008A0004018513001F0BEFC3E49320189180886DB
:1008B000761C042EF2DBA14E3000133001F0B7FCA1
:1008C00006990860102231001B31A04801F097FC06
:1008D000102231002B319E4801F091FCAAB231194F
:1008E0001034200000F081FC0B99C978814200D0BF
:1008F0001AE100210B98019C009D964B09E000BF76
:100900001C190020D0170020821D525C66189A55D1
:10091000491CA942F8D30B9018790007000F0599DC
:100920004872184601F083FC0599C8608A4801F0B6
:1009300079FC04990880002232268648C079801EFE
:1009400069460870174809781301C3189955694614
:1009500009780300F6335970694609782823C15491
:10096000521C042AE9DBAAB27A480119803420001B
:1009700002F0B2F90020CF49096888470549087894
:100980004A781206120C104380076FD10FF05EF800
:100990006CE000BFB40000209B1900201400002070
:1009A000A006002000170020F6170020C2490A7890
:1009B0004B781B061B0C1A43D205D30F6A465372A1
:1009C0000A784B781B061B0C1A431106C90ECA077E
:1009D000D20F69460A720B99C978814251D100221F
:1009E000B54E6846847A019800990CE00B9B9B1DDC
:1009F0009B5C8518751900952D789D4200D00124C7
:100A0000009D2B70521C8A42F0D38AB23118802389
:100A10005B00C01802F060F94320305C002800D071
:100A2000401E03990870002C04D06846017A407A71
:100A30000FF090FDC84908784A781206120C10434E
:100A4000400A400710D14220305C00280CD030789A
:100A500071780906090C0843800BC00704D4BF480D
:100A6000806B80470BF0E2FC11F0CCF9BFE300BFD4
:100A70003C19002005180020C01100200B99C978EE
:100A8000814251D1019808284ED30998019D009EBA
:100A90000DE00B99891D895CB14BAC181B190093B3
:100AA0001B788B4202D0009801701000521CB24299
:100AB000EFD30028DAD4AB4801F076FCC105C90FAA
:100AC0000AD0A54908784A781206120C10438022F1
:100AD00002430A70120A4A70A348A4490860C64833
:100AE00001F062FC0200C4490120104301F068FCDF
:100AF0009B4CB2B26119A0208000281802F0ECF8DB
:100B00002000083001F050FC0400BB4801F04CFC10
:100B1000B949974A0240A00480231B0318403FE3D1
:100B20000B99C978814201D0052724E200230B9854
:100B30000199904D1CE000BF6000002040010020A2
:100B40008B01002040420F00001B0020FA180020FB
:100B50000A1900201002002015020020841DE45C08
:100B6000CE18AC5503D17C4A9278039CA2705B1CD2
:100B7000009A934201D300F065FCCA18EED0012A16
:100B8000ECD0082AEAD0092AE8D00B9069E20325C4
:100B90000B980179032008406F4E31787278120665
:100BA000120C1143D34A0A4010433070000A70708F
:100BB00002200B99C870307871780906090C084337
:100BC000000AC00720D58C4C200001F0EDFB02008C
:100BD00021000120104301F0F3FB3178707800060A
:100BE000000C0143614803220A40012A01D1C24995
:100BF00009E0317872781206120C114303220A4080
:100C0000022A02D1BD490160F1E231787278120600
:100C1000120C1143294206D1B9490160B94803C8F1
:100C2000B9490860E3E2200001F0BEFB2100012287
:100C30009043B6E280200B99097901420AD0464AD6
:100C4000117853781B061B0C194308431070000AD7
:100C50005070CCE2404C207861780906090C0843BA
:100C6000000AC00742D5217860780006000C0143D5
:100C70000B9800790200032503230B400321114048
:100C80008B421BD1207861780906090C0843054086
:100C9000022D52D10498808C800576D4564801F0FC
:100CA00083FB020054490120104301F089FB934863
:100CB0002E494FE0C01C0020700200202A40032A69
:100CC00000D181E303210140207862781206120CE2
:100CD0001043884A024011432170090A617020784C
:100CE00061780906090C0843000AC0074DD504982D
:100CF000808CBD490140049881843F4801F054FB39
:100D000002003D490120104301F05AFB2178607830
:100D10000006000C0143154803220A40012A01D1B4
:100D2000754909E0217862781206120C11430322FA
:100D30000A40022A02D17149016026E021786278D6
:100D40001206120C1143294216D16D4901606D48FB
:100D500003C86D49086018E0B4000020C0280020D6
:100D6000F0020020F8020020B30400001800002068
:100D7000FFFFF7FFB60000201F4D280001F014FB15
:100D800029000122904301F01BFB217860780006C6
:100D9000000C01430B98007901258A0801211140BC
:100DA00082082A4091420FD0810801200840217812
:100DB00062781206120C1143AA4A0A4080001043BE
:100DC0002070000A60700126217860780006000C0F
:100DD00001430B980079CA0801211140C2082A403A
:100DE000914212D0C1080120084021786278120691
:100DF000120C11439C4A01E0000000200A40C00090
:100E000010432070000A6070012621786078000687
:100E1000000C01430B9800790A09012111400209D5
:100E20002A4091421AD001090120084021786278B5
:100E30001206120C11438D4A0A4000011043207023
:100E4000000A6070207861780906090C08430106E1
:100E5000090F012008400EF0CDFD012621786078B1
:100E60000006000C01430B9800794A09012111404A
:100E700042092A4091420FD04109012008402178BF
:100E800062781206120C1143794A0A40400110435D
:100E90002070000A60700126227860780006000C3D
:100EA00002437448017852092A4202D040220A4380
:100EB00001E0BF220A400270217860780006000C31
:100EC00001430B9800798A090121114082092A40C7
:100ED00091421BD0810901200840217862781206D6
:100EE000120C1143A84A0A40800110432070000AE6
:100EF00060700DE0FCFF0000C1FB00000DFB000076
:100F00004DFA00001012002020000020002E05D015
:100F100002222100E320800001F0DEFE20786178CB
:100F20000906090C08438008284209D02078617816
:100F30000906090C08438009284201D0012000E07D
:100F400000200EF05FFC52E10B98C078002800D022
:100F50003AE29F48027843781B061B0C1A43520A58
:100F6000520757D1027843781B061B0C1A43100A0C
:100F7000C00701D50A2735E2012905D0412903D050
:100F8000022901D042292BD106F0A4FB2200103205
:100F90000CCA994219DB23DC904216D320E00B984F
:100FA000C07800285DD1012905D0412903D002294C
:100FB00001D042290BD106F08DFB220010320CCA61
:100FC000994204DC01DB904201D211270AE28049F8
:100FD00008784A781206120C1043C008C00701D4E2
:100FE000B048D4E0B048D2E0FCF900000B98C078DB
:100FF000F32836DA0B990979E02932DAF12830DA68
:10100000AA4801F0D1F94103C90F03D1B548C0681E
:101010008047002800D0A5E0039880780100154A99
:1010200012780125B04B1B781E092E4243D0012AAD
:1010300005D0412A03D0022A01D0422A1CD103291B
:1010400003DA0B9AD278342A0BDC032803D10B98ED
:10105000C078752805DA042941DB0B98C078E028B0
:101060003DDBB1E1FBFF0000F7FF0000EFFF0000F8
:10107000DFFF000000170020832A30D1012805DDA2
:10108000022904D10B99C9780C290DDD9CE10329B3
:1010900004D10B99C978372906DB95E1042903D1DE
:1010A0000B99C9787F29F8DA042818DD0B98C078E5
:1010B000F32814DD88E1832A11D1032903DA0B9A7E
:1010C000D278342AF6DC032803D10B98C07875282F
:1010D000F0DA042903DB0B98C078E028EADA3C490F
:1010E00008784A781206120C1043000A284201D1EF
:1010F0000B2777E10B98C078421E03988273D2B217
:101100000B98411D079801F07AF80B980079039924
:1011100008730B9880781F211F220240072A02D1F2
:1011200003994D7304E00140082901D103994F73DD
:101130008148824908605D4C200001F035F92100AA
:10114000054328002DE00B98C078F128B2DA0B98FF
:101150000079DF28AED1554C200001F025F941037C
:10116000C90F01D007273DE10B98C078421E0398B4
:101170008273D2B20B98411D079801F040F8704875
:101180006E49086006E000BFBFFF00006D486B4974
:101190000860464C200001F007F902002100012000
:1011A000104301F00DF922E00B980079022811D1CB
:1011B000C54C200001F0F8F8020021000C20824309
:1011C0000820104301F0FCF8042221000B200CE061
:1011D000B4000020032834D10B98401D01F022F800
:1011E0000B99CA79C92A02D2091D01F075FD0120A7
:1011F0000B99C8700C990F71F4E0019B0C9C237142
:10120000009B0C9C6371009B9B1C0B9CE3700B9BD5
:101210009B781A40012A2AD0022A35D0032A01D10C
:10122000FFF72CFA042A61D0092A41D00B2A75D085
:101230000F2A4AD01B2A00D186E01D2A00D18FE058
:101240001E2A00D0FBE00C200B99C8709F4CA168AF
:101250000C98001D01F024F861680C98083001F02A
:101260001FF821680C980C3001F01AF8BAE000243D
:10127000974B0C980199009A861D944245D20D19FE
:101280005D5D3555641CF8E70024924B0C9801997C
:10129000009A861D944238D20D195D5D3555641C47
:1012A000F8E700BFBD260100A5F500000000002002
:1012B0000024894B0C980199009A861D944224D2EF
:1012C0000D195D5D3555641CF8E70024834B0C98BF
:1012D0000199009A861D944217D20D195D5D35550E
:1012E000641CF8E7C0280020BD02002001F0CEFAFF
:1012F0007B4C21000C3101F063F87A488078A070B3
:1013000000230C980199009A934200D3DAE0A51CBF
:10131000CE18AD5D861DF5545B1CF5E70B99C870C2
:101320006F4908784A781206120C10438007800F24
:101330000C99087156E000BFADF8000018000020BD
:1013400041F80000110400000B98C1700498808CD3
:101350000C9908710498808C000A0C99487141E03E
:101360000B980079012401281BD10B98401D00F037
:101370005EFF06000B98C579C92D25D22A000C996D
:101380000831300001F06BFC00281DD10C9804716D
:101390000C994D7231000C98401D00F081FF6D1DBD
:1013A0001EE003284BD10B98401D00F03BFF0600C8
:1013B0000B98C579C92D07D22A000C990831300045
:1013C00001F05EFC002801D006270BE00C980471A8
:1013D0000C99CD7131000C98401D00F057FF2D1D68
:1013E0000B98C5700B9880784106490E0B98817058
:1013F0005F200840432803D13A000898870117432B
:1014000020203A060FD001210B9AD1700B998978D0
:10141000BA0602D0DF20084000E008430B9988702C
:101420000C98077102E008430B9988700B990C988F
:10143000FFF721F80B98C078C01D80B200E00020B3
:101440000DB0F0BD0B90264CA07AE17A0906090C8C
:1014500008430121084201D005980170A07AE17A81
:101460000906090C084301254008284201D00699C5
:101470008D77A07AE17A0906090C08438008284292
:1014800009D01948007805994877184800780599D7
:1014900008770699CD77A07AE17A0906090C084306
:1014A0000DD003994D73124812490860124E300056
:1014B00000F07AFF31000543280000F081FFA77299
:1014C000E77294E60C908DE760000020740E100027
:1014D000400100201002002070020020F0020020D5
:1014E000B4000020F6170020A5020020A40200206E
:1014F00085F900001800002000000020F1B586B03A
:1015000001ACA078DF210140A1700120E070A1783A
:10151000E0230B4069460B70194610230B436946C4
:101520004B72097811230B4369460B7209783223F9
:101530000B436946CB70097813250D43B849A7239F
:101540009B00CB185B799B1C6E46B370B54BCB5C94
:101550007370B54BCB1804930023367E761E00D1F2
:1015600088E1B61E00D178E1F61E1FD0B61E012E0E
:101570002ED9B61E3BD0F61F00D175E1B61E00D1A4
:1015800080E1761E00D1FCE0761E012E00D854E1E9
:10159000F61E00D15CE1761E1FD0761E24D0761E8A
:1015A00000D145E1361F00D161E1F1E09F4D29787E
:1015B0006E783606360C3143C9080142F5D06846CC
:1015C000407AA0701371A07820210143A170BDE181
:1015D0006846407AA070112052E1684600783321B5
:1015E0000143A17017204BE1A570182048E1B94DC7
:1015F0002D6803956D0604D56846007AA070122008
:101600003EE16D462D7831262E436D462E70039DAA
:10161000AD061ED5AF4D6E79002E1AD169460978F8
:10162000A17013712968490501D522211171AA4BB6
:1016300019785D782D062D0C2943490A014267D09F
:101640007A494979131DE5785955E178491CE170CB
:101650005EE0754D4D190495039DAD070BD1734D9B
:101660002E786F783F063F0C3E436F463E816E46B4
:101670003689B60754D1BC4D4D19A726B6008E1930
:101680003679AD5DC93D53D00C3D012D8DD9ED1E90
:101690004ED06D462D78A5706D46AD78E570634DE2
:1016A0002E786F783F063F0C3E43760B0642039E32
:1016B00005D0760501D5212606E0142604E076053E
:1016C00001D5202600E013261671A726B6008E1934
:1016D000A54FC9193779C95D517106E00499377969
:1016E000FF18C95D971DF9545B1C71798B42F5DBBE
:1016F000794B19785E783606360C3143490A014237
:1017000006D06979131DE5785955E178491CE170D7
:10171000714B19785D782D062D0C2943890A7AE0E2
:10172000039EF60334D5A726B6008E197679002ECF
:101730002ED08E4E8E5D202E01D1162602E0042E74
:1017400001DC41361671A726B6008E19864FC919DD
:101750003779C95D517106E004993779FF18C95D81
:10176000971DF9545B1C71798B42F5DB5A490B7854
:101770004E783606360C33435B0A034245D06B790C
:101780003DE0544DAB79C92B05D1EB79812B10D0BD
:10179000002007B0F0BD1D00C93DF9D00C3D012D62
:1017A000F6D9ED1EF4D0DC2BF2D0D72B01D0DB2BF9
:1017B000EED16B461B7835251D43A570A7239B00F2
:1017C000C9184B795B1CE370202313718B7953711B
:1017D000012306E0049D0E79F618AD5D561DF55403
:1017E0005B1C4D79AB42F5DB3B490B784D782D0600
:1017F0002D0C2B435B0A034207D00C4B5B79151D64
:10180000E678AB55E3785B1CE3700B784D782D06DA
:101810002D0C2B43990A014200D08FE096E000BFC7
:1018200000170020E2030000A2020000B400002024
:101830006846007AA0700C2022E06846C078A0704C
:101840006846007E162801D1312019E0322017E0C9
:101850006846C078A070332012E0684640780006E1
:1018600096D5A57019200BE0A5701B2008E0A57087
:101870001C2005E068464078000689D5A5701A202E
:10188000107163E0134D6E79002E8DD0364E8E1997
:101890002F79F65DC93E87D00C3E012E00D877E740
:1018A000F61EFBD06E46367834273743A7706E4657
:1018B000B678E6702E68760501D5232600E0152659
:1018C00016712D68ED030DD5284D4D5D202D05D1E8
:1018D000162506E09C19002070020020042D01DC72
:1018E00041351571A725AD004D191F4E89192E7967
:1018F000895D517106E004992E79F618895D961D6F
:10190000F1545B1C69798B42F5DB19490B784D78F2
:101910002D062D0C2B435B0A034207D0154B5B7938
:10192000151DE678AB55E3785B1CE3700B784D78BA
:101930002D062D0C2B43990A014207D00D488079C2
:10194000111DE378C854E078401CE070A078400690
:10195000400E40210143A17001A91000FEF78BFD4C
:10196000E078C01D15E70000A10200009902000008
:1019700070020020B400002072B6A1480168491C22
:10198000016070479E480168002901DD491E016021
:101990000068002800D162B67047F8B500248F4D6A
:1019A000287869780906090C08438007800F022807
:1019B00002D10EF02BFA04000EF0D6F9002800D068
:1019C00001240EF095FA002800D00124844F0CCF9A
:1019D000083F844E1004400EC0070AD5B0680128A5
:1019E00002DD401EB06004E07FA003C81040194033
:1019F00003C7706801280BD1287869780906090C9B
:101A000008437B4901402970090A6970002008E0F9
:101A1000002808D17C4800F0C7FC4103C90F07D05B
:101A200001200AF020F97068012801DD401E706075
:101A30002000F2BDF8B56F4F6F4E70484068002827
:101A400013D072B66E480168491C01606F4A30CAF3
:101A5000083AB07A002813D03000103001F0E2F9D3
:101A60008D4219DB01DC844216D33000103001F0C6
:101A7000D9F903C70020B072FFF784FF0020F2BD40
:101A800003CF083F8D4202DBF6DC8442F4D203CF61
:101A90000023801D594103C2FFF774FF0120F2BDEE
:101AA00030B503000B2A01D00C2A02D10022554880
:101AB0000EE0012030BD200007E09C5C604008255E
:101AC0004408C007F7D5524860406D1EF8D1521C3B
:101AD0008A42F2D380B230BD78B587B004000D00E1
:101AE00000F0DDF9002D04D11421200001F081F96E
:101AF00005E01422210002A800F081FB02AC0025C1
:101B0000E07B400806E0002D47D1012501998020A7
:101B10000843C0B20021621813785B1A03E00F2952
:101B2000F9D1621813781B1A1370491C1229F6DDBB
:101B300001902078FF28E6D16078AA28E3D1A07C24
:101B40004028E0D1A07AE1788842DCD10B22102134
:101B50002000FFF7A5FF06002000103000F062FB18
:101B60008642D0D12B4EB1680091201D00F05FFB62
:101B700000998142C7D1716800912000083000F0BF
:101B800056FB00998142BED1366820000C3000F02F
:101B90004EFB8642B7D1012000E0002008B070BDA6
:101BA00030B585B000216846FFF796FF05001A4C56
:101BB000200000F0F9FB02002100022082436800AF
:101BC00002231840104300F0FBFB200000F0ECFB68
:101BD0008107C80F05B030BD00000000B400002030
:101BE000F0110020001B0020FFFDFFFFFFFFFFFFA3
:101BF000FFF1000010120020C80000202812002071
:101C000038000020FFFF000000000020201200200C
:101C100001A00000740E10006000002001228A4024
:101C2000D14300E0002100022D4A801841610020CC
:101C3000704700022A494018C1688022D20056E04D
:101C400010B50002264A80180A78C368354C1C403B
:101C50001203C0239B0113402343C3604A78C36827
:101C60002F4C1C40520280239B001A402243C2602A
:101C70008A78C3682C4C1C40120280235B001A40F7
:101C80002243C260CA78C3687024A343120114407F
:101C90001C43C4600A79C3680824A343D2002240CD
:101CA0001A43C2604A79C3680424A34392002240C5
:101CB0001A43C2608979C26802239A4349001940D5
:101CC000114335E00EE016E01EE000021A4A8018CB
:101CD0000268120C12040A430260002070470000E0
:101CE000000C0040000214494018C16801220A4358
:101CF000C2600020704700020F494018C1680122ED
:101D00009143C1600020704700020B4A801842686E
:101D1000120C12040A4342600020704700000000C9
:101D2000FFFDFFFFFFCFFFFFFFFEFFFF1140194345
:101D3000C160002010BD0000000C00400A43C260DA
:101D40000020704700021B494018C1680122F5E7D6
:101D500018B585B01421684601F02EFA012108203B
:101D600001F0D2F900206946087048710322CA7058
:101D700001228A71087188704870FFF761FF0E4C6C
:101D800021000020FFF7A1FF21000020FFF79CFFAA
:101D900000210020FFF742FF0020FFF74AFF012249
:101DA00003210E2001F012FA0020FFF7CBFF06B04E
:101DB00010BD0000000C0040D4FE000080B50028DB
:101DC00002D1FFF780FF01BD0020FFF77BFF01BDBF
:101DD00010B53B4A13680F24A3430907090F1943A1
:101DE0001160116820239943400118400843106096
:101DF000002010BD34484078002800D1704780B5DD
:101E00000C210020FFF7E4FF2E481E210160E12194
:101E1000016001BD38B584B02B484078002801D15D
:101E200005B030BD00F032FD284C21000C3100F02F
:101E3000C7FA9625AD0004226946280000F020FF6D
:101E400020000C3000F0B0FA009981421ED2200030
:101E50000C3000F0A9FA0099401A00901C49884201
:101E600014D320000C3000F09FFA010001A800F00C
:101E700017FA01AC17480168201D00F011FA012083
:101E80002072092201A9280000F026FFBFF34F8F1E
:101E9000114812490860BFF34F8F00BFFDE70A48A1
:101EA0004078002800D1704780B5FFF765FD0548F0
:101EB0001E210160E1210160FFF764FD01BD00000A
:101EC000840F0040800F0040F0030020B400002089
:101ED000704301002C1900200400FA050CED00E00D
:101EE00012E000BF00BF00BF00BF00BF00BF00BFC7
:101EF00000BF00BF00BF00BF00BF00BF00BF00BFEA
:101F000000BF00BF00BF401E0028EAD1704700009C
:101F100080B5D1E080B500220B21974801F01BFC71
:101F2000002201219548CCE080B501F06DFC01BD97
:101F300038B501211C2001F0E7F88F4D04220B2158
:101F4000280001F0D7FB8D4C04220121200001F074
:101F5000D1FB00220B21280001F0FDFB0022012112
:101F6000200001F0F8FB403C04220721200001F092
:101F7000C1FB01220721200001F0EDFB31BD38B586
:101F800001211C2001F0C0F800F050F87C4D022225
:101F90000421280001F0AEFB02220221280001F0FA
:101FA000A9FB764C02220B21200001F0A3FB0222A8
:101FB0000521280001F09EFB02220021200001F0F3
:101FC00099FB02220621280001F094FB022207213E
:101FD000200001F08FFB02220621200001F08AFB85
:101FE00002220021200001F085FB02220B212000AB
:101FF00001F080FB02220C21280001F07BFB022271
:102000000B21280001F076FBFFF749FF0122022196
:10201000012001F0DBF801220221022001F0D6F8B4
:1020200001220221032001F0D1F831BD38B5012190
:102030001C2001F069F8524C02220F21200001F00F
:1020400059FB4D4D04220121280001F053FB0122D0
:102050000121280001F07FFB01220821200001F06E
:1020600049FB09220821200001F08EFB40340422A4
:102070000521200001F03EFB02220421200001F096
:1020800039FB04220321200001F034FB012203214B
:10209000200001F01FFB01220421200001F01AFBA7
:1020A00001220521200001F015FB01220221002060
:1020B00001F08CF831BD80B5020000D0012207216B
:1020C0002F4801F048FB01BD80B5FFF793FE0020CB
:1020D00000F0D8FF0121002000F0BAFE002000F03F
:1020E0003AFF0021012000F0B3FE0021022000F0A1
:1020F000AFFE0121032000F0ABFE0021042000F020
:10210000A7FE002000F0E0FF002000F0EDFF01F04E
:1021100033FAFFF76FFE01BD1A481B4908601B48E0
:102120001B49086000201B4908601B491B4A1160BD
:102130001B4908601B491C4A11601C490860704714
:1021400010B5FFF71CFF9624A401194880780028D9
:1021500002D0200001F036FC200001F02CFE01F03E
:10216000C4FE01F0EFFF02F073F8FFF7F1FD00F09D
:102170002BFAFFF7D1FF10BD401C0240400C02407B
:10218000000C0240254400003411002027440000C8
:10219000381100203C1100207D4400004411002033
:1021A00048110020D14500004C11002014000020EF
:1021B000F003002010B503001000002202E01C5DB7
:1021C0000019521C94B28C42F9D380B210BD00B5F4
:1021D0006F4908686F4A50436F4A801808606F491A
:1021E00002F0BEF8080000BD38B504000D00FFF78E
:1021F000EEFF291B491C02F09FF8081932BD03E0CD
:102200000B780370491C401C13005A1E1B04F7D1A5
:1022100070470B00110000D1704780B51A0013F011
:102220004FF801BD017840780002084370470178FB
:10223000427812020A43817809041143C0780006EB
:102240000843704730B50178427814020C43827815
:1022500012042243C47824061443037922004479EB
:10226000250214001D43827913042B43C079010613
:102270002000194330BDC178827812020A434178A8
:102280000904114300780006084370470170090AE9
:102290004170704701700A0A4270090C81707047E2
:1022A00001700A0A42700A0C8270090EC1707047F0
:1022B00010B5040022701004000E6070100CA070A5
:1022C000100EE0702371180A6071180CA0711A0EBC
:1022D000E27110BD81700A0A4270090C01707047EA
:1022E000C1700A0A82700A0C4270090E01707047B0
:1022F00002000B00FF21002A00D1704730B50024F6
:102300000DE0010008E0105D4840C1B2082548001A
:102310000906F6D5872141406D1EF8D1641C9C4208
:10232000F1D3C8B230BD70B5030000241C480CE0E6
:10233000280007E01D5D684008264508C007F7D55E
:1023400028005040761EF8D1641C8C42F2D380B233
:1023500070BD70B503000C00002500210EE00100E7
:1023600009E0585D000248400100082648000904C1
:10237000F5D511004140761EF8D16D1CA542F0D371
:1023800088B270BD80B5074AFFF7E3FF02BD0000C9
:10239000F02700206D4EC64139300000FFFFFF7F5F
:1023A000FFFF000021100000C37882784178007898
:1023B0001B021A430902120408431043704700002D
:1023C00084460870000A4870000A8870000AC870C5
:1023D0006046704780B50200072165484DE0012046
:1023E00064490A6802430A600A6852080240FBD046
:1023F0000A6882430A600A6852080240FBD17047AB
:1024000010B55B490A686F4B1340027892030C0CBD
:1024100022401A430A600278002A08D10A6807237A
:102420009A4380784007400F104308600FE0012A6C
:102430000DD14078402801DB042010BD0A687D4B97
:1024400013400002FC22920102401A430A6000205D
:1024500010BD38B50500474C00220321200000F0D4
:1024600077FE00220421200000F072FE2A000621DF
:10247000200000F06DFE31BD6F4800F069FE01BD27
:1024800030B502000120FF24A41CA24210DA6B4BDD
:102490001C686B4D2540C903C403214029431960C2
:1024A0001968490A4902D205D20D0A431A6030BDA3
:1024B000042030BD10B5FA239B0001212C4A14687A
:1024C000E4090C400ED054680C4354601C00631E99
:1024D000002C03D0546864080C40F7D0002B01D1C5
:1024E000092010BD93680370D36843701368DB083C
:1024F0000B40136901D1DB06DB0E83709369037116
:102500005369C370D3694371136A837150688843F8
:1025100050601068C009084003D050684008084067
:10252000FBD1002010BD10B5FA239B000121244AE5
:102530001468E4090C4009D054680C4354605B1ED5
:102540001C0412D0546864080C40F8D003789360DF
:102550004378D36083781361037993614379D361BE
:1025600083791362C0785061D0E7092010BD000064
:10257000001400400414004038B504000020FFF7A8
:1025800029FF20780E4D296808229143C000104091
:1025900008432860601CFFF733FF20796968C74A49
:1025A0000A400002E021C9000140114369606179DD
:1025B000E088FFF765FF20000830FFF7B4FF31BD6A
:1025C00000140040FFBFFFFFF8B5BD48BD490860DB
:1025D0000121142000F098FD0120694608700022B6
:1025E0000A714870887055220A7205224A720922BF
:1025F0008A7216230B730323CB724A7320228A73C9
:102600004871FF20C8806846FFF7B6FF0020FFF73B
:1026100020FF00220321084800F09AFD0022032138
:10262000172000F0D3FD0120FFF7D4FEFFF7D7FEFF
:1026300005B000BDFFC0FFFF04140040301400408F
:10264000FF7FFFFFF0B585B005000C0001A800BFBB
:10265000A3A1102201F0A0FEE12636019A4807212D
:102660004056704328180090984F390001F078FECA
:10267000451C0098390001F073FE0F00380031004E
:1026800001F06EFE20713800310001F069FE0E008D
:1026900030003C2101F064FE607130003C2101F00B
:1026A0005FFEA1718A48207007206070FF206E30A5
:1026B0000300267861780906090C0E430321421CA9
:1026C0000E4202D1130000E00300AB4213D2ED1A18
:1026D000237866783606360C33435B1C23701B0A5E
:1026E0006370237866783606360C33430B42EBD1A1
:1026F000E8E7A17011E0237862781206120C134308
:1027000001AA0B4201D11D2191700121535CAB4202
:10271000EFD2ED1A491C0D29F8D3E57005B0F0BDD4
:1027200018B587B00400684671A11C2201F034FE80
:10273000207861780906090C08432178627812062E
:10274000120C1143FF226E3242438808101869466A
:10275000A2785200895A4018E17840185D49401823
:10276000217862781206120C1143890703D1A178EF
:10277000032900D2401E554948432179E122120124
:102780005143401861793C2251434018A1794018C7
:1027900008B010BDD0B50600642101F0CDFDCCB26B
:1027A0003000642101F0C8FD060220000A2101F07A
:1027B000C3FD0701374320000A2101F0BDFD0800D9
:1027C000384380B2D0BD3EB504006D46E078FFF7D7
:1027D000E1FF2871207861780906090C08433E4919
:1027E00088420ADB207861780906090C0843FA213F
:1027F000C900401A2070000A6070207861780906CC
:10280000090C0843C0B2FFF7C5FFA871A078FFF715
:10281000C1FF68712079FFF7BDFFA8706079FFF7ED
:10282000B9FF6870A079FFF7B5FF28706846FFF719
:102830007AFE37BD01090A2251430007000F08182C
:10284000C0B270473EB504006846FFF733FE6D46E0
:102850002879FFF7EFFFE070A879FFF7EBFFFA2187
:10286000C90040182070000A60706879FFF7E2FF25
:10287000A070A878FFF7DEFF20716878FFF7DAFF15
:1028800060712878FFF7D6FFA07137BDF8B56846AC
:10289000FFF7D8FF6846FFF743FF05B000BDF8B566
:1028A000694604E07047F8B569460C4A8018FFF79E
:1028B000C9FE6846FFF787FF05B000BDFFF8FFFFC0
:1028C000D14500004C110020A000002080510100E3
:1028D000B20700004905F5FFD10700006F3DD51292
:1028E000001F1C1F1E1F1E1F1F1E1F1E1F0000007B
:1028F000000000001F003B005A0078009700B50060
:10290000D400F300110130014E01000010B5AE4CAF
:1029100021000831FB208002FFF752FD21000C311D
:10292000FA208002FFF74CFD21001031F4208002D4
:10293000FFF746FD21001431F2208002FFF740FD31
:10294000A248A349086010BD04E00378401C0B7046
:10295000491C521E1304F8D101207047F1B582B012
:10296000800538D100270D00029801F0F1FB002806
:1029700031D1029E2C0000256019027841780902AD
:102980001143827812040A43C0780106114370197A
:1029900001F0EAFB002804D12D1D8020C0008542F3
:1029A000EADB02962600B54D8024E40022002900CF
:1029B0000298FFF7C9FF00200021EA5DF35D9A420B
:1029C00002D1491CA142F8D33500A14205D07F1C99
:1029D000032FC9D304E00020FEBD01216A46117017
:1029E000032F01D36946087068460078FEBDF8B52C
:1029F0000500B748054234D10091084031D1B54CAB
:102A00008027FF003A0021002800FFF79DFFBE1E2F
:102A100000223100A01CFFF7CDFB2178C2B2914209
:102A200004D161780004000E814218D0002D18D026
:102A30003A0021000098FFF787FF00223100A01C18
:102A4000FFF7B8FB2178C2B291420AD16178000445
:102A5000000E814205D121002800FFF77FFF0020F2
:102A6000F2BD0120F2BDF8B506000F0014001D00F4
:102A7000FFF715FAFEF780FF39003000FFF7B7FFC8
:102A8000060009D10021BA48069A03E06318C35C26
:102A90006B54491C9142F9DBFEF774FFFFF7FFF915
:102AA0003000F2BDFBB582B015000A9F0126FFF78A
:102AB000F6F9FEF761FF03990298FFF798FF0021EE
:102AC000844C009504980AE0009A5218A2180378E2
:102AD00015789D4200D000261370401C491CB94255
:102AE000F2DB002E16D10022B549A01CFFF762FBD5
:102AF0002070000A607021000298FFF72FFF0398F2
:102B0000002807D030484079002803D021000398DE
:102B1000FFF724FFFEF736FFFFF7C1F9002005B0ED
:102B2000F0BDF0B585B01D00694C23000340860A56
:102B3000B602471A01D5784200E03800002901D0DA
:102B4000044030D10024022B00D2022304910292CF
:102B50001A0003908027FF0007E0F619E41902220B
:102B600002986946898840180290A8B200281BD0B4
:102B70001018B84203D9B81A6946888001E068463F
:102B80008580684680882D1A0498002801D0039813
:102B9000341A684680880090029B21003000FFF7BD
:102BA00081FF0028D9D0012005B0F0BD10B5130079
:102BB000844A8218844CA24201D3012010BD0A002D
:102BC0000021FFF7AEFF10BDF003002001970100C8
:102BD00098060020F0B585B01D003D4C2300034051
:102BE000860AB602471A01D5784200E0380000296B
:102BF00001D0044030D10024022B00D202230491E2
:102C000002921A0003908027FF0007E0F619E419EA
:102C1000022202986946898840180290A8B20028CA
:102C20001BD01018B84203D9B81A6946888001E051
:102C300068468580684680882D1A0498002801D04F
:102C40000398341A684680880090029B2100300067
:102C5000FFF709FF0028D9D0012005B0F0BD10B55D
:102C60001300584A8218584CA24201D3012010BDCB
:102C70000A000021FFF7AEFF10BD0000000C00208D
:102C8000F1B50D001400514E30000C30FFF78CFBF5
:102C9000002802D1FA27BF0204E030000C30FFF711
:102CA00083FB070030000830FFF77EFB002802D1CD
:102CB000FB20800203E030000830FFF775FB2300A3
:102CC0002A00009C39190019FFF784FFF2BD0000AB
:102CD000FF03000000080020F1B50D0014003B4E7A
:102CE00030000C30FFF760FB002802D1FA27BF024A
:102CF00004E030000C30FFF757FB070030000830CD
:102D0000FFF752FB002802D1FB20800203E03000D5
:102D10000830FFF749FB23002A00009C39190019ED
:102D2000FFF7FFFEF2BDF8B504000D00274F380095
:102D30001430FFF739FB002802D1F226B60204E076
:102D400038001430FFF730FB060038001030FFF772
:102D50002BFB002802D1F420800203E03800103061
:102D6000FFF722FB2B0022003100FFF733FFF2BDFB
:102D700000080020F8B504000D00144F380014308E
:102D8000FFF712FB002802D1F226B60204E0380059
:102D90001430FFF709FB060038001030FFF704FB82
:102DA000002802D1F420800203E038001030FFF741
:102DB000FBFA2B0022003100FFF7B3FEF2BD00004A
:102DC000FE0300000000FEFF01F80100F0030020F8
:102DD00038B504000D00FEF7CFFD2B002200FE21C8
:102DE0008902FF208002FFF79CFE002800D011E03E
:102DF00014E038B504000D00FEF7BEFD2B002200E4
:102E0000FE218902FF208002FFF7E4FE002800D0A7
:102E100000E003E0FEF7B6FD012032BDFEF7B2FD93
:102E2000002032BDC37982791B021A434379120410
:102E300001791B021943C378114382781B021A439C
:102E40004378120400781B021A43104370470000B5
:102E5000FEB50C0000216A461170474D4749A96034
:102E60007F49A9600127210000D00124296A01912E
:102E700026003A070121C943002806D0022824D0A1
:102E80000ED3042844D02DD35DE0286801400E43C2
:102E90002E60002C5AD0E868C00A384056D1FAE7B4
:102EA000286A02432A627448016803220A430260C6
:102EB000286802218843710001432960002C45D015
:102EC00028698009384041D1FAE7286804218843FD
:102ED000B10001432960002C38D06869000B3840EC
:102EE00034D1FAE7286A02432A6264480168C022A2
:102EF00012020A430260286808218843F100014356
:102F00002960002C22D0A869800938401ED1FAE738
:102F1000286A5B4A02403004104328626048026815
:102F2000114031430160C820FEF7DAFF2868102104
:102F30008843310101432960002C07D0E86B800CE5
:102F4000384003D1FAE704206946087001982862E6
:102F500068460078FEBD80B50749084A8A60404A45
:102F60008A600A68E0239A434001034013430B60E0
:102F700000F04AFC002002BD002000405A5A000028
:102F8000FEB50020474B19885A8802929A88019210
:102F9000DA881B8C6C462380484C2768484E494D84
:102FA00007237F091F4006D0022F22D01FD3042FF2
:102FB0002BD028D34EE0E0682840884201D1300071
:102FC00048E0E06828400299884201D1444841E045
:102FD000E06828400199884201D142483AE0E0681F
:102FE0000540954201D1464834E0464832E0544815
:102FF00030E06846008861698905890D884202D100
:103000009620000226E0E00B24E0E06B8007800FB2
:10301000032819D1E0682840814216D00298E1685F
:103020002940884201D12E4E0FE00198E1682940E5
:10303000884201D12B4E08E0E0680540AA4201D148
:103040002F4E02E02F4E00E03D4E3000E16BC905EF
:10305000090F48432168090A0B40D840FEBD000013
:10306000A5A5000080B5FFF78BFF14490968C904C6
:10307000890FC84002BD00004C1D02408C0D02406B
:10308000FFFFFEFF07494000085A3B490A68D20A81
:10309000D2024005400D1043086000207047000038
:1030A00000240040000C100038494000085A3849FC
:1030B0000A68920A92028005800DECE70020004029
:1030C00000366E01FF0700003249334A8A60334AF6
:1030D0008A600A68324B13400002E022D20032E0DC
:1030E000408651010024F4002A492B4A8A602B4A69
:1030F0008A600A682B4B1340C002C022520122E0B2
:1031000000127A0000093D0070B50C00810610D550
:10311000DF260640244D22003100280000F018F878
:103120002248032E01D1047008E002780321280010
:1031300002E0220001001E4800F00AF8002070BDE5
:103140000048E801120102401A430A60002070475B
:1031500001238B40012A016802D10B4303607047B1
:103160009943016070470268CA40D007C00F70479A
:10317000104903E0000000000C2000400A68824370
:103180000A600A681043086070470000000C1000D5
:1031900014200040002000405A5A0000A5A500005D
:1031A000FFF8FFFFFFE7FFFF24200040D8100020BA
:1031B0002020004028200040002800D1704780B522
:1031C000002901D012F07AF801BD000070B501238A
:1031D000C406E40EA3409E4C2360C400182525407D
:1031E000FF26AE40F4438907090EA940050007D524
:1031F000A84D0007000F083880088000281803E059
:10320000A548AD08AD00401905682C402143016078
:10321000012A01D1A14800E0B548036070BD81B02A
:10322000B4480068002803D1009000980028FCD022
:1032300001B0704780B500BF00BF01BD70B506008A
:103240000125B540AC4C20000830FFF7ADF8284010
:1032500024D1201DFFF7A8F8211D2843FFF7B0F85F
:1032600020000830FFF7A0F8210008312843FFF7BD
:10327000A7F8300001F0B8F8201DFFF795F8EE43ED
:10328000211D3040FFF79CF820000830FFF78CF834
:103290002100083106403000FFF792F870BD80B57C
:1032A00094480068002869D100F0FBF9410704D573
:1032B0000220FFF7C3FF02215DE0C10604D5012013
:1032C000FFF7BCFF042156E0810604D50420FFF778
:1032D000B5FF05214FE0410604D50620FFF7AEFFFC
:1032E000062148E0010604D50920FFF7A7FF0721C2
:1032F00041E0C10506D5AF480068002800D08047EE
:10330000082138E0810504D51120FFF797FF092136
:1033100031E041050BD5A848FFF746F8C00704D4B3
:10332000A6480068002800D080470A212FE0010548
:1033300004D50E20FFF782FF0B211CE0C10404D549
:103340000F20FFF77BFF0C2115E0810404D513202B
:10335000FFF774FF0D210EE0410404D51420FFF7A0
:103360006DFF0E2107E0000408D59548006800288D
:1033700000D080470F21002000F097F90B2100209A
:1033800000F093F90721002000F08FF906210020BA
:1033900000F08BF901BD8B480068002800D0704711
:1033A00080B5402000F07DF9C10704D5052001F06B
:1033B0001BF8002113E0410604D5082001F014F8A1
:1033C00006210CE0010604D5072001F00DF80721C5
:1033D00005E0000506D5032001F006F80B2140208A
:1033E00000F063F901BD704776480068002800D0FE
:1033F000704710B582246401200000F052F90005E6
:1034000006D50A2000F0F0FF0B21200000F04DF956
:1034100010BD6C480068002800D0704780B500BF20
:1034200000BF01BD67480068002800D0704780B524
:1034300000BF00BF01BD2F480068002800D07047C2
:1034400080B561480068002800D0804701BD0000B9
:1034500080E200E080B500BF00BF00BF00BF01BD3B
:1034600024480068002800D0704710B5574C002150
:10347000200000F003FC00280AD00021200000F00A
:1034800002FC53480168002902D02068C0B2884776
:1034900010BD00001CED00E000E400E000E100E0F1
:1034A000704780B500BF00BF01BD80B500BF00BF41
:1034B00001BD80B500BF00BF01BD80B500BF00BF2A
:1034C00001BD80B504F0DEFA01BD80B500BF00BFCC
:1034D00001BD80B500BF00BF01BD064800680028DF
:1034E00000D0704780B53B480068804701BD0000B0
:1034F00080E100E0841100200000002080B500BFC2
:1035000000BF01BD80B500BF00BF01BD80B500BFD9
:1035100000BF01BD80B500BF00BF01BD80B500BFC9
:1035200000BF01BD80B500BF00BF01BD80B500BFB9
:1035300000BF00BF00BF01BD80B500BF00BF01BD1F
:1035400080B500BF00BF01BD80B500BF00BF00BF98
:1035500000BF01BD80B500BF00BF01BD80B500BF89
:1035600000BF01BD80B500BF00BF00BF00BF01BDEF
:1035700080B500BF00BF01BD10B5124C0120206016
:10358000FFF78DFEFFF707FF2068002804D10E48E3
:103590000068002803D080472068002802D10D4829
:1035A0000068804700BF00BF00BF00BF0020206050
:1035B00010BD00003011002008000020381100204C
:1035C0002C11002084110020441100200002004032
:1035D000481100205011002070B5140005000E00A5
:1035E000002234482818FFF7B3FD0020B100691805
:1035F000314A891808602278310030482818FFF7CE
:10360000A7FD627831002E482818FFF7A1FDA278A7
:1036100031002C482818FFF79BFDE27831002A483A
:103620002818FFF795FD2279310028482818FFF760
:103630008FFD6279310026482818FFF789FDA079AF
:1036400029490A68294B1340C00380221202104006
:1036500018430860002070BD80B5254A02E080B59F
:10366000164B03E08018FFF77EFD02BDC018FFF780
:103670006FFD002002BD890040180F49401802600C
:103680000020704710B51300012202E010B51300AE
:1036900000223A4C9B00E3181818FFF759FD002050
:1036A00010BD374940180068704780B50022354B7F
:1036B000DCE700000C0D0240000C0240080D024047
:1036C000000D02401C0D0240200D0240240D02405E
:1036D0002C0D024080B54B4BC018801080040014A4
:1036E000FFF7C9FF01BD0000080F0240FF7FFFFF89
:1036F000040D02407CB50C001500424940188010B2
:10370000860007216846FFF757FD01210022684621
:10371000002D08D0012D09D0022D0BD0042D0DD085
:10372000082D0FD011E04170C27005E04170C270E9
:1037300001710AE04170C170027106E042700170CF
:10374000427102E042700170417121006A4630B25C
:10375000FFF742FF73BD80B52A4BC018801080046C
:103760000014FFF77CFF01BD80B5264A8018801049
:1037700080040014FFF770FF02BD0000300D02400E
:10378000000E0240100E024058B50C001D494118B1
:1037900089108E00082A07D012D30A2A0DD005D32B
:1037A0000C2A0CD004D30BE0012009E0022007E032
:1037B0000222210030B2FFF765FF032000E0002065
:1037C000C2B2210030B2FFF75DFF51BD38B50C0029
:1037D0000C494018801085000122210028B2FFF713
:1037E00055FF0222210028B2FFF750FF03222100DB
:1037F00028B2FFF74BFF0022210028B2FFF746FF57
:1038000031BD000000F4FDBF80B5FFF7B9FB2F49C3
:10381000086001BDF8B50020FFF734FC1120FFF768
:1038200043FCFFF7ADFB2949086029480068009078
:103830002748006880214905014325480160254843
:10384000C168254A0A40C260C16C244A0A40C26469
:103850002349CA68C0231B021340CB60CA6C0023F3
:10386000CB64204AD468D360D36C1F4C1C40D46412
:103870000B2304681C430460046C1C4D2543056441
:103880001B4C0D6825430D601A4D0E6C2E430E64C3
:1038900016682E431660184E176C37431764076A74
:1038A0003B430362036E114F1F430766086A0443DC
:1038B0000C62086E28430866106A05431562106E94
:1038C00006431666009802490860F1BD8811002081
:1038D00020200040000D0240F4FF0000FB08000023
:1038E000800D0240001D024003F9000004F70000B3
:1038F000FF3F0000FFFF0000FC06000080B500F065
:1039000069FEFFF787FF04F0FBFA002002BD00000C
:1039100080B50122001DFFF71BFC002002BD80B511
:103920001030FFF720FC02BD0021416100207047EC
:1039300080B500221430EEE70068C0B2704780B551
:1039400000221430E7E780B5E3E70000FEB50D0084
:10395000694600BFC1A218CA18C101D10420FEBD2A
:1039600004000020606004202E5E688869780143AE
:1039700031432878084360602878402801D0C02867
:103980001ED1A86800F03AFE0700E86869463212C6
:10399000D20D9219521292008958884000F02EFEE2
:1039A0000100380000F045FEFC21890500F096FE7C
:1039B00000F024FF80B2A06104212000FFF7A8FFDF
:1039C0000020FEBD70B586B00600102102A8FFF7EA
:1039D000F3FB07216846FFF7EFFB01211C20FFF7EF
:1039E00093FB00246D46002068706A460921FFF7AA
:1039F000F3FD012209210020FFF73DFE0120687040
:103A00006A460A210020FFF7E7FD01220A21002073
:103A1000FFF731FE01210020FFF776FB02A84021CD
:103A20000170448044700596C9008180FFF71AFB3D
:103A300004908024E40502A92000FFF787FF0021FD
:103A40002000FFF77CFF01212000FFF778FF002115
:103A50002000FFF778FF012201210620FFF7B6FBC7
:103A600006B070BD7CB50600FA208001009080246D
:103A7000E4052069000728D40098411E0091002821
:103A800023D00120FEF72CFAF3E73000344D2978DB
:103A90006A781206120C1143022602220A432A7087
:103AA000120A6A702168FF229143084320602D4862
:103AB0000090206930400DD10098411E00910028EF
:103AC00008D00120FEF70CFAF3E700980028DCD5B7
:103AD000002076BD01212000FFF731FF28786978AA
:103AE0000906090C0843204901402970090A697038
:103AF000012076BDF8B5FA26B601002400900F002B
:103B000000E0641CBC4210D20098005DFFF7AAFFE1
:103B100005002000142100F023FC002901D1FEF74C
:103B2000BEF9002DEDD10020F2BD10480068C0079D
:103B300007D43000461E002803D00120FEF7D0F93C
:103B4000F3E7300000D00120C0B2F2BD80B5084AD2
:103B50001279002A01D1002002BDFFF7CBFF02BD80
:103B6000C800002000710200FDFF000010000040AE
:103B7000F0030020F8B5002507000C0012E03730F4
:103B800009E03730C0B2FFF76DFF30780007000F53
:103B90000A28F4DA3030C0B2FFF764FF2020FFF7C4
:103BA00061FF6D1CA54206D27E19307800090A28F3
:103BB000E7DA3030E6E7F1BDF0B595B004000D006E
:103BC000002669460E70002D05D1002C03D130204F
:103BD000FFF748FF33E0002D07DA2D20FFF742FF03
:103BE0000021301BA94104000D00002720002900FE
:103BF0000A22002300F01FFE01A8B9004250200055
:103C000029000A22002300F016FE04000D007F1C8C
:103C1000142FEBD36846047801A87142890040183C
:103C2000C16C002901D0012401E0200004D0302023
:103C30000843C0B2FFF716FF761C142EECD315B064
:103C4000F0BD38B50400002504E0FFF70BFF0028A5
:103C500003D06D1C605D0028F7D131BD0400000069
:103C60000300000080B503E080B5002201E080B5CC
:103C70000122001DFFF76CFA002002BD80B5103054
:103C8000FFF771FA02BD80B500221430F2E70000A0
:103C9000F8B50D0001D10420F2BD040000206060E1
:103CA00006202E5E69886878084330430421695EE7
:103CB00008432978014361602878402801D0C02852
:103CC0001ED1A86800F09AFC0700E8686AA13212C9
:103CD000D20D9219521292008958884000F08EFC41
:103CE0000100380000F0A5FCFC21890500F0F6FC7D
:103CF00000F084FD80B2A06104212000FFF7B7FF2F
:103D00000020F2BDF8B586B00700150001211C2087
:103D1000FFF7FAF900246E4674706A4600214020CD
:103D2000FFF75AFC032200214020FFF7A4FC0120EA
:103D300070706A460B214020FFF74EFC03220B21D6
:103D40004020FFF798FC01210220FFF7DDF902AEC9
:103D50007480280001D1747007E0022D01D1042085
:103D600002E0032D01D108207070B480FFF77AF9CA
:103D700004908020C000F0800597402030703C4CBB
:103D800002A92000FFF784FF00212000FFF77BFF3E
:103D900001212000FFF777FF01212000FFF764FFDA
:103DA00000212000FFF75EFF012203210820FFF71A
:103DB0000DFA07B0F0BD80B500220821FFF7A2FF81
:103DC00001BD7CB50400FA25AD010095284E30698F
:103DD00000071AD40098411E0091002815D0012038
:103DE000FEF77EF8F3E73068FF2188430443346030
:103DF0000095306980070DD40098411E009100287D
:103E000008D00120FEF76CF8F3E700980028EAD507
:103E1000002076BD012076BDF8B5FA26B601002453
:103E200000900F0000E0641CBC4210D20098005DBE
:103E3000FFF7C7FF05002000142100F091FA0029C8
:103E400001D1FEF72CF8002DEDD10020F2BD09487C
:103E50000068C00707D43000461E002803D00120A8
:103E6000FEF73EF8F3E7300000D00120C0B2F2BD0B
:103E700000020040100200400400000003000000A7
:103E80000200000010B500220260012343600B789D
:103E90004C781C438B782343C978194340230B4348
:103EA00003608260002010BD012283689B081340DC
:103EB000FBD0C160816849081140FBD0C068C0B226
:103EC00070471CB5040001210620FFF71DF94020B2
:103ED000FFF74EF900206946488080204870102086
:103EE00008702000FFF7CEFF13BD80B50A48FFF72A
:103EF000E8FF01BD10B50400002060602000FFF75E
:103F0000D3FF0121616010BD80B501000248FFF7B9
:103F1000F1FF02BD000000000008004070470000F3
:103F2000F8B58AB004000E00002501957048009095
:103F300002A8202111F0C2F9012C0BD0022C09D0CB
:103F4000042C07D0062C05D0082C03D00C2C01D053
:103F500004202FE0424B18686649014070025A0D58
:103F600010400843186000BF13A60198810022008A
:103F700077587A4302AF7A50401C0828F6D35C4841
:103F80000090A80004E0374CDC60374CDC600A602D
:103F90005E49091802AA12580C68944206D0009C87
:103FA000661E0096002CEED1072003E06D1C082D44
:103FB000E5D300200BB0F0BD20000000170000008A
:103FC0001B00000050460000E02202001800000024
:103FD000F0000000E803000000F090F80020FEBDB3
:103FE000F1B582B00F00424C009402988021C902C2
:103FF000884201D30420FEBD0094194D0126286893
:104000000009304026D00098411E00910028F6D1CA
:104010000920FEBD0098411E00910028F8D01148EB
:10402000E8601148E860286803218843304328602D
:1040300028688007800F0128ECD10298076000945F
:1040400028680009304009D00098411E00910028DE
:10405000F6D1DDE700F05CF80094E9E7BCE700008A
:10406000200002405A5A0000A5A50000F8B507003C
:104070001F4C00948020C002874201D30420F2BD6F
:10408000009401252B4E30680009284027D0009865
:10409000411E00910028F6D10920F2BD0098411E72
:1040A00000910028F8D02448F0601348F060306890
:1040B0000321884302210143316030688007800F6B
:1040C0000228EBD1002038700094306800092840A5
:1040D00009D00098411E00910028F6D1DCE700F0DD
:1040E00017F80094E9E700F009F80020F2BD00009D
:1040F000FFFFFF00FFFDFFFFA5A500000F480E49D1
:1041000001600F4A0260002309E000000000024045
:104110000A48094901600A4A02600023DB43436000
:1041200001600260836001600260436101600260BF
:1041300083617047200002405A5A00002C00024060
:10414000A5A5000080B501210120FFF7E9FE01BD12
:1041500038B50400FFF78AFF050080208000201892
:10416000FFF784FF281832BD80B5FFF739FF02BD85
:1041700080B50A000A2112E080B50EE080B500216A
:104180001030FEF7F0FF02BD80B500220021143090
:1041900006E0006880B2704780B50A0000210C304C
:1041A000FEF7D6FF01BD30B5FA2292000B78C46845
:1041B000594D2540DB02E024A4011C402C43C4607F
:1041C0004B78C4683025AC431B011D402543C560B6
:1041D0008B78C468514D25405B028024A4002340A5
:1041E0002B43C360CB78C4684D4D25401B0280240F
:1041F000640023402B43C3600B79C4680825AC439B
:10420000DB002B402343C3604B79C4680425AC43D7
:104210009B002B402343C3608B79C4680225AC43C9
:104220005B002B402343C36013005A1E1B0403D0C2
:10423000C3681C06E40FF7D0120401D1092030BD79
:1042400009894268120C120411434160002030BDFC
:104250003EB53448344908600A216846FEF7ACFF91
:1042600001210920FEF750FF01212420FEF74CFF19
:1042700000206C462070608002216170A080A071D7
:1042800020812A4D69462800FFF78DFF0120A0718B
:10429000274C69462000FFF786FF2800FFF774FFD0
:1042A0002000FFF771FF01212800FFF761FF0121C6
:1042B0002000FFF75DFF012203211120FEF786FF9A
:1042C00001212800FFF768FF00212000FFF764FFAD
:1042D00037BD70B50400FA26B600154D0021280040
:1042E000FFF74AFF134831000E18090403D0E968AC
:1042F0000A06D20FF7D06968090C0904001B80B2C6
:10430000084368602800FFF73FFF01212800FFF7FE
:1043100033FF70BD00000000FFC7FFFFFFFDFFFF80
:10432000FFFEFFFFC17B000050110020000F004086
:10433000400F0040FFFF0000CA0F00D049420310A9
:104340005A400DD004B500D3404200F009F8009A5D
:10435000D20701D34942124200D5404204BD0000B9
:10436000094214D088420FD30122030C01D100046A
:104370001204002300185B418B4200D35B1A5241A8
:10438000F8D319001000704701000020704708B5ED
:1043900000F0A6FA08BD000070B4103A03D378C943
:1043A000103A78C0FBD2530701D318C918C001D501
:1043B00008C908C0D20704D30B880380891C801C5D
:1043C000002A01D50B78037070BC70478B0701D1B0
:1043D0008307E1D0124205D00B78491C0370401CC2
:1043E000521EF9D17047000010B5040070490878DA
:1043F0004A781206120C1043000AC00708D5042C94
:1044000002D10BF0BCFE03E0032C01D10BF0B8FE8F
:1044100068480168002901D020008847022002F086
:1044200023FB10BD704764488078002800D1704796
:1044300010B5624C0A212000FFF7C8F901220A21B9
:104440002000FFF747F95E48017902220A43027112
:10445000017842781206120C114301220A430270BD
:10446000120A4270574CFF202074211D0120FDF7D5
:10447000A7FF21000520FDF7A3FF10BDF8B54E4EA4
:10448000B078002800D192E08025ED0500212800B9
:10449000FFF745FA002800D17FE002212800FFF74E
:1044A0003EFA002879D100212800FFF741FA40495F
:1044B00008784A781206120C10430127414C000A72
:1044C00038420FD04048FDF76FFF8003800F02286D
:1044D00008D0201DFDF768FF002803D1211D04200E
:1044E000FDF76EFF201DFDF75FFFFF21243188429D
:1044F00004D33648FFF720FA00903FE02800FFF78A
:104500001BFA694608703079002828D0201DFDF775
:104510004BFF002811D168460078FF280DD0201DE0
:10452000FDF742FFFF21220010321154201DFDF73C
:104530003BFF211D401CFDF743FF201DFDF734FF0D
:1045400001280CD168460078FF2804D1211D0020E5
:10455000FDF736FF03E068460078AA280ED16846CA
:104560000578201DFDF720FF210010310D54201D7E
:10457000FDF71AFF211D401CFDF722FF210004203A
:10458000FDF71EFF0E48017842781206120C114307
:104590000F4307703F0A477006E02800FFF7CCF989
:1045A00000902800FFF7C0F9042002F05DFAF1BD89
:1045B000700200203C110020F0030020000C02409B
:1045C000C80000202004002000000020000100405E
:1045D0007047000010B5074979441831064C7C44F7
:1045E000163404E0081D0A68891888470100A142B2
:1045F000F8D110BDC00A0100B00C01009D210200DD
:104600000AD002D4491E9218FCD5C905100A120618
:10461000524100D3012A4841704700009D21020009
:10462000EED55242F446FFF7EBFF0122D2071043CA
:10463000604730B405004D400122D20715404B18A9
:104640000418240E28D01B0E2FD0FF2C34D0FF2BA3
:1046500037D0E41A00020902104311434308480806
:10466000D10D1B1A02D2641EDB181B18DB18834203
:1046700000D31B1A4941F9D37F3426DDFE2C08DA1A
:10468000E4054808C907194391416041284330BCFB
:104690007047FF20C005F9E728001B0E03D0FF2B51
:1046A000F5D14902F3D0D043F1E7FF2C01D140020C
:1046B000F9D1FF20C005E9E74002F4D1FF2BF8D182
:1046C000F1E728004902E2D0EDE70B020020244286
:1046D000DCD15B129B1CD9D9D805D7E70122D207C0
:1046E00003004B402ED4431A01D2C01AC91830B46B
:1046F0004B180418240E1B0E22D0FF2C20D0E31AD6
:10470000182B1DDC09021143C40D641E0002104366
:1047100094461925ED1A0A00AA40D940451801D33C
:104720006D08A41CE405D209280A2D062A43654613
:10473000AA41604103181B0EFF2B01D3C00DC00519
:1047400030BC7047514006E05140CCE70122D2070F
:1047500003004B40F8D4431A03D2C01AC918504082
:10476000514030B44B18090211430418240E1B0E9B
:1047700040D0FF2C3AD025009D410BD31ED8C50D4B
:104780004002401A0BD3ED050100400AC9059141D2
:104790006841D5E7C50D40024918401AD0D0012123
:1047A0004008491C0018FCD58C4204D36D1A000A3D
:1047B000ED054019C4E7E8051040C1E7182DBFDC3E
:1047C000AC1C0D00E140E5414D40012D4941C40DB7
:1047D00000021043451A01D46D199543641EE40587
:1047E000280A2D069541604130BC7047FF2BA7D1A8
:1047F000D843A5E72442A3D10020A1E70122D20794
:104800000118090E7F3910D449421F310FD4001806
:1048100005D2C0011043C84000D5D0437047C00145
:104820001043C84005D44042704700207047004202
:10483000F3D51000704730B4DC0F03D05B42524216
:1048400000D25B1E0D106C4013D0F446002502D33D
:1048500049424042A94100F00DF8E40703D35B420E
:104860005242AB41244202D549424042A94130BCA8
:10487000604730BC124224D0994228D970B5002537
:104880001B4202D00C00002109E000240126491837
:104890006441944200D3A41A7641F8D33100012632
:1048A00001E0764109D2001864416D41A41A9D418E
:1048B000F7D2A4185D41B619F5D3300022002B00C1
:1048C00070BD1B42D8D108B500F00CF808BD01D16D
:1048D0009042D3D202000B0000210020704700005C
:1048E000704700007047000010B5002801D1042077
:1048F00010BD194901220A600A6843780424045F44
:1049000023430624045F23430224045F2343082433
:10491000045F234313430B6002784B680F4C1C4029
:1049200092020B0D1A4022434A60807A4A6804239F
:104930009A438000184010434860002010BD06498B
:104940000A681D4B13400001F822520002401A432E
:104950000A6000207047000004240040FFFBFFFFB6
:104960003EB5040001211020FEF7CEFB0021684671
:104970000170418080221201C28081720125614A4A
:104980000223002C146809D02543156014682343C2
:104990001360120C02810C22427008E02340136065
:1049A00013681D40156041700181C021C9008180DC
:1049B000FFF79AFF37BD00000FFEFFFFF8B58AB082
:1049C0000400642069464880474F684607800025F8
:1049D000142601A845492422FFF7DEFC20000AD056
:1049E0000A2C08DA01A8A1004018001F0468002062
:1049F000C043844201D1380038E00127E0B21B28CF
:104A000001D1012503E01C2801D101252826280019
:104A1000FFF7A6FFE0B2FFF792FF354C354D606916
:104A2000284060613000FDF75BFA2762009E361473
:104A30002069384007D13000461E000403D0012011
:104A4000FDF74EFAF4E736B2012E02DB2068694624
:104A5000088060690540656100202062FFF780FFE3
:104A600029480168B9430160684600880BB0F0BD71
:104A700080B51B20FFF7A2FF24494143C812000D57
:104A800040180001000C02BD80B51C20FFF796FF06
:104A900019490988401A00F077F818A20CCA00F0EA
:104AA0007DF800221A4B00F03BF900F013FAFFF7F3
:104AB000A5FE00B202BD000038B505001B20FFF7BF
:104AC0007DFF0400E8B2FFF779FF10496143CA1285
:104AD000120D511809134143080BFFF78FFDFFF723
:104AE0008DFE80B232BD0000FFFF0000AC5300001D
:104AF000A0240040FEFF0000340C100015AE47E17A
:104B00007A14F33F00240040042400409411000074
:104B100000406F4009420BD500B500224942404297
:104B2000914100F005F80122D207114300BD09426E
:104B300018D044221201094203D4521E00184941E0
:104B4000FBD5D21E1205A4464C05C90A0300C00AB3
:104B5000604064465B055B4100D3012B0023584154
:104B600051417047010000E0010042221201D21EB3
:104B7000004207D002D4521E0018FCD5C10A4005DD
:104B800012058918704700000100EED54042F44636
:104B9000FFF7EBFF0122D20711436047F0B50E008B
:104BA0005E400125ED072E40B446AE0ADF184C18D2
:104BB000F44208D2F7420ED2640D01D07F0D12D11B
:104BC00000206146F0BD05D1F74201D87F0D05D127
:104BD0000020C143F0BDFBD1640DF9D00020C143DA
:104BE000490549088FE0E419C902DB0229432B4338
:104BF000DB0A460DC00231438E4630B487B295B20F
:104C00007D432E0CADB2140C7C43A419260C240455
:104C100025439CB27C43A419190C7943270CC9196C
:104C2000A4B20F043C43090C000C97B247432E0C6E
:104C3000BE193543ADB2170C4743360CBF19A6B2A7
:104C4000BF193E043543240C3E0C36199FB247432E
:104C5000BF19BCB23E0C89191F0C47437F183E0494
:104C60003443390C704680B297B247432E0CBE19BC
:104C70003543ADB2170C4743360CBF19A6B2BF1966
:104C80003E043543240C3E0C36199FB24743BF19EE
:104C9000BCB23E0C89191F0C47437F183E043443B5
:104CA000390C77463F0C90B278432E0C80190604DD
:104CB000ADB22E43050CA0B22D18120C7A43501938
:104CC000020C80B2240CA4189AB27A43121914046C
:104CD0002043120C89181B0C7B43C91830BCEF0A07
:104CE000394203D1B61940414941641E6F12BF0DCC
:104CF000E41B0BDBFF19BC4211DA24050027420834
:104D0000AE417841614166463143F0BD641C05D136
:104D1000401C6141CF0201D34908F4E750E75DE749
:104D2000F0B40125ED070F005F404FD48B4200D156
:104D3000824205D98446100062468C4619006346BB
:104D4000DF184C18640D7F0D3AD0661C760537D0FD
:104D5000E61B352E34DCDB022B43DB0A0C0DC902CB
:104D60002943C912202E0DDB1700203E06D01F005C
:104D7000F741F3405F400026012A7741C018714196
:104D80000DD217E01700F741F2405740F3415A4067
:104D9000B340F3405A400026801859410AD3A21C60
:104DA00052050FD0C207012F724117004008CB07F0
:104DB00018434908641C24054208AF417041614111
:104DC000F0BC7047641C21050020F9E76B4010E03F
:104DD0006B40ABE7F742F3D1E943F1E72442EFD16F
:104DE00000200021ECE7F0B40125ED070F005F4043
:104DF000EED40C00871A9C4105D2C01BA141D219E8
:104E0000634169406B40AE0ADF184C18F442E1D2AE
:104E1000640D7F0DE2D0E61B362ED1DCDB022B4386
:104E2000DB0AA4460C0DC9022943C90A012E28DC5D
:104E300004D1D6075208DF073A435B08EF0A7642EF
:104E40009041994114D039423BD1B6194041494172
:104E5000761C394204D1761C001849413942FAD0F7
:104E6000B9436746B74208D9A41B24052143A7E7E5
:104E70000042EAD13642E8D1A2E7E40AE107002085
:104E80009EE7202E0BDD203E1F00F340F7415F40E0
:104E9000012A002257417E42984191410BE01700C0
:104EA000F741F2405740F3415A40B340F3405A4073
:104EB0007E42904199410A0303D2641EB6194041D3
:104EC00049410027641E24054208AE4178416141F2
:104ED000F0BC7047012252054B18DA4201D958152F
:104EE00070475B0D0722D2019B1A10D9FF2B1DD2F0
:104EF000DB050122D2070A4013430903020D1143C7
:104F0000490AC200524100D9491CC81870470AD149
:104F1000800A0A0302435212921C04D9D3070B40A1
:104F2000D00518437047C80FC0077047C80F00026C
:104F3000FF30C0057047000038490A680423134356
:104F40000B6004E035490A6804239A430A600A6842
:104F5000022318401043086030BF704710B5304C32
:104F600002E02420FCF7BCFFA079E1790906090CD6
:104F70000843411EA171090AE17100280DD0207972
:104F800040070AD1207861780906090C0843C00758
:104F9000E7D5207902210143217110BD38B5204C9D
:104FA000A078E1780906090C084315D11D488178DD
:104FB000002911D0007900280ED000210020FEF732
:104FC000A3F8194D02220A212800FEF793FB0A22BA
:104FD0000A212800FEF7D8FBA078E1780906090C21
:104FE000084303D00020FFF7ADFF31BDFFF7A4FF5A
:104FF00031BD0C488078002800D1704710B50121E0
:105000000020FEF781F8084C0A212000FEF7DEFBA5
:1050100001220A212000FEF75DFB10BD10ED00E02B
:10502000C8000020F0030020000C0240F0B40E0085
:105030005E400125ED072E40B446AE0ADF184C183D
:10504000F4423BD2F74241D2640D43D07F0D38D0B9
:10505000E41BC902DB0229432B43CF0ADB0A06000B
:10506000B61A9F4104D2641EB6197F41B6185F413B
:105070006812800D24180018844222DAE80C0021FE
:10508000B6197F41B61A9F4102D2B6185F413F1C44
:1050900040414941F4D3241C21DD2405B6197F4148
:1050A000B61A9F4105D33743C60737430026012F61
:1050B0007041614166463143F0BC7047FCD1F74214
:1050C00005D20020C14349054908F3E704D0002078
:1050D000C143F1E77F0DFAD000206146ECE724429E
:1050E000FAD1401C61410F03F6D30020E2E7000033
:1050F000F446491806D200F013F8094201D5C81742
:105100004108604700F00CF8FBD0002249424042C1
:105110009141F6D400200121C9076047491824D2E3
:105120004A0D40231B01D21A0123DB071E3A09DC7A
:105130005242202A19DA8902400D084318430021FF
:10514000D0407047524220320CD489021943430D9B
:105150001943C002D0400B00D341D14048405840D1
:1051600009427047D817D9177047002000217047AF
:105170004A00520DFF239B009B1CD21A19DD3523D8
:105180009B1A1EDD1300153B09DA9B41DB0AD34055
:10519000094201D4401E5941002099437047002222
:1051A000D243DA40094202D4002380185941904387
:1051B00070470B0D5B0500D0024901D30121C907DF
:1051C000002070470000F03F4A00520DFF239B0073
:1051D0009B1CD21A19DD35239B1A1DDD1300153BCC
:1051E00009DA9B41DB0AD340094201D5401E5941EF
:1051F0000020994370470022D243DA40094202D589
:10520000002380185941904370470B0D5B0500D077
:10521000024900D200210020704700000000F0BFCA
:10522000F4464A1805D200F00FF801D5801740085F
:10523000604700F009F80121C907884200D9080039
:10524000404260474A1812D2400DC902084301216A
:10525000C9070843520D40210901521A521C06D4B5
:1052600052421F3201D4D0407047C017704700200F
:10527000704770B40123002413E00168001D194237
:1052800002D04D466D1E49190C60091D121F042ADB
:10529000FAD20D00960701D50C80AD1C1A4000D043
:1052A0002C700268001D002AE7D170BC7047000016
:1052B00030B4434351435D18010C0C00130C5C43A4
:1052C0002D1980B2434392B251430024C91864415E
:1052D00024040B04090C09195043C018694130BC5F
:1052E000704730B4012464054D00EC420BD85D00DA
:1052F000EC4208D80C001C4364000443144304D25D
:10530000994200D1904230BC7047FCD08B42FAD118
:105310008242F8E730B4012464054D00EC420BD81A
:105320005D00EC4208D80C001C43640004431443A5
:1053300004D28B4200D1824230BC7047FCD09942EB
:10534000FAD19042F8E70000012212060118CA4281
:105350000AD28A420DD83822120609098918C20FCA
:10536000D20711434007704700D04908090901439B
:1053700001E0C10FC9070020704730B40122016865
:10538000001D00290FD00368C31844680830144278
:1053900002D04D466D1E64191D6825601B1D241D1D
:1053A000091FECD0F8E730BC704700000400000093
:1053B00002000000120000000500000008000000CC
:1053C00006000000FFFFFFFFFFFFFFFF07000000D8
:1053D00090420ED1A4460C001C430128644107D022
:1053E000994205D14C006415641C644000D30C0341
:1053F00064467047D2B2203A03D308001041C9175F
:1054000070472032D141D04048409140D14048407F
:105410009140114170470000D2B2203A03D30100FD
:105420009140002070475242D04152422032914078
:105430004140D04090404140704700001070030A46
:1054400053701B0A93701B0AD37011710B0A5371AE
:105450001B0A93711B0AD37170470000D2B2203A25
:1054600003D30800D040002170472032D141D04002
:1054700048409140D140484070470000FEF73EFA56
:10548000002801D0FFF7A6F800BF00BF002000BF32
:1054900000BF02F035FD00F000F880B500F002F822
:1054A00001BD00000746384600F002F8FBE70000A7
:1054B00080B500BF00BF024A11001820ABBEFBE759
:1054C0002600020000BF00BF00BF00BFFFF7D6FFED
:105C000070B50500002459498C70594E0CCE083EE1
:105C100058480021C9431040194003C6564818216E
:105C20004D43451928000FF049FB28001030FDF7BF
:105C3000F9F82A001032150002000B000020C043C2
:105C40004E49104019402A00FFF7F8FB534A002044
:105C50000021E300D31803C3641C202CF9DB70BDC2
:105C600070B5474D6B70212836D0222834D01428C7
:105C700001D0232801D1052400E00324049B2C72C9
:105C80006A6029703F4C012121613F4A22606563AF
:105C9000F02B05D0142803D0232804D0202802D0CC
:105CA0000522002312E03E48058828001B1D99406C
:105CB000FEF742FB0E00FA20800046432800072131
:105CC000FEF73AFB892041437218D317200000F0F9
:105CD00095FF200000F0F3FF70BD7CB52B4E8120B6
:105CE0003070304D0822290030000830FCF787FA68
:105CF0002800FDF797F80003000F84002000103003
:105D0000212800DB1024220029000C313000103043
:105D1000FCF775FA0520009023001033DBB2320047
:105D2000D5211720FFF79CFF73BD38B50C00104D2F
:105D30000CCD083D16A003C81040194003C51648F5
:105D4000FCF732FB8107C90F08D01748016800290A
:105D500001D001208847FCF75DF831BDF023012216
:105D60002178607800F087FA31BD0000181D00200E
:105D7000F0110020FFFDFFFF301F0020FFFEFFFF9E
:105D8000281D0020581D002099610000381D0020AA
:105D9000FFFDFFFFFFFFFFFF00000020301E00207F
:105DA00080110020F0020020001D0020F2B58AB012
:105DB000002004900390D2480A9909781822514390
:105DC000401802900120CF4988700A98007800F0AE
:105DD00073FA0690CB484078142801D0232806D1C6
:105DE0000822C949C948FCF70AFA08200490069815
:105DF000C749884200D020E10298FDF713F804005B
:105E00000D000298FDF70EF8240E2A021443080430
:105E1000000E44430298FDF705F8080E201A801E74
:105E200080B20090DA49884200DB06E1D94C0022BA
:105E300001462000FCF7BEF9050000982018FCF789
:105E4000F1F9854201D101200390FBF795FD0398FC
:105E5000002800D1EFE0201D07902000FCF7E7F9B3
:105E60000590201DFCF7DEFF000C80003C21014066
:105E70000C3189B201910098884200DADDE0201DE2
:105E8000FCF7D0FF80235B050B4014D0201DFCF7EE
:105E9000C9FF08AA03C2BB48FCF7C4FFB94ABAA6A7
:105EA000C0CE06400F4008A803C8000E00063043CD
:105EB0003900FFF7C3FA201DFCF7B4FF080F800775
:105EC00016D5201DFCF7AEFF08AA03C2AD4D280071
:105ED000FCF7A8FFA9A6C0CE06400F4008A803C83B
:105EE0008B4B0B403B43300019002A00FFF7A6FA0A
:105EF000201DFCF797FFA34D080F400715D5201D67
:105F0000FCF790FF08AA03C22800FCF78BFFB4A699
:105F1000C0CE06400F4008A80CC8FF210904194054
:105F2000300039432A00FFF789FA082200212800AF
:105F30000AF050FA201DFCF775FF3C26000C820089
:105F4000324021000C3128000C30FCF758F9201D9C
:105F5000FCF768FF000C8000064032000C2128008E
:105F60000C300AF037FAA34803C80F22D24302408C
:105F7000059F9DA003C810403940009A019BD61A86
:105F800036049B4A3240024301201043994A03C21F
:105F900002980830FCF746FF019AA718009A019B67
:105FA000D51AE624A400C0B2032804D004280ED0D9
:105FB000202817D026E08F4E082231002000FCF761
:105FC0008BFEAAB239000598FCF786FE15E0894ED3
:105FD000082231002000FCF77FFEA9B23800FCF750
:105FE000C9FE0AE0834E082231002000FCF774FE4F
:105FF000AAB239000598FCF7D9FD0822310020002B
:10600000FCF76AFE7B4B03CB083BA8A6C0CE06403C
:106010000420304303C3083B082219002000FCF78A
:106020005BFEA44C2000FCF7BFF9210002220243D2
:106030001000FCF7C5F9FBF7A5FC0298FCF7F2FE8F
:106040004803400F69460871304C81200499605420
:10605000042202990831601C049BC018FCF7CFF899
:10606000069881000A980078014389B204982018A4
:10607000401DFCF70BF903980121414004982018BA
:10608000C171049D08353F4E082231006019FCF7AC
:10609000B6F808350398002813D00798FCF7C2FE1D
:1060A000000C80003C270740E819202801DD202053
:1060B000471BBAB231000C316019FCF7A0F8BFB22F
:1060C000ED194C4E0CCE083EA5A003C81040194057
:1060D00003C60A980078FFF793FD0A484078212804
:1060E00018D1A2480668002E23D068460079009097
:1060F000EBB222000A98C1782120B04719E000BF16
:10610000301F0020181D002043010020381D0020F2
:10611000FFFF000022280CD195480668002E08D009
:10612000684600790090EBB222000A98C1782220DC
:10613000B04798480168002906D00398002801D08C
:10614000012000E0022088470398002814D00A9814
:106150004078202801D0232802D1FBF75BFE0BE01A
:106160000A99C978D52900D0C9216A4612790092C6
:10617000EBB22200FFF774FD0BB0F0BDFFFFFFFF95
:106180000000FFFFF0020020FFFFFF00FFFFFFFF06
:1061900001080000901F002010B50C00207A05288F
:1061A00006D1DB202070082272496068FCF727F8CE
:1061B000237A2278617860680AF0D4FA3D48FCF7C7
:1061C000F3F801214008084009D06B4C21616F4A67
:1061D0000023200000F012FD200000F070FD10BD33
:1061E000FFFFFFFFFFFF00FFFFFF0000FFFFFFFFBC
:1061F0000000FFFFF0110020F8B500275F4C276179
:106200005F482060614A0023200000F0F7FC200076
:1062100000F06FFD584C27615A4E2660524D656361
:106220005A4A0023200000F0E9FC200000F061FD44
:10623000554C276126606563544A0023200000F016
:10624000DDFC200000F055FD0024514D28001030E9
:106250001821614346183000FCF7E4FD32000600C7
:106260000F00CBA003C830403940FFF7E7F8641CAB
:10627000042CEBDBF1BD38B53B4D29706870AA707A
:10628000414C01222261C448206065639A40FA2093
:1062900080004243D317200000F0B0FC200000F043
:1062A0000EFD200000F088FD31BD0000F0FFFFFF73
:1062B000FFFFFFFF00000020F8B5B84C344918225A
:1062C0005043081800901030FCF7ACFD06000F009A
:1062D000009A1032AAA003C830403940FFF7AEF848
:1062E000002532E06811800E40198311A648D900BC
:1062F000401803C801229B01EB1A9A40D3170240B1
:106300000B4021D1002A1FD100981030FCF78AFDE4
:10631000000EFF2813DA00981030FCF783FD009A76
:106320001032944696A6C0CE0640020E521C1206AB
:10633000FF200006104030436246FFF77FF8974980
:10634000A0B2884200D12C006D1C0098FCF76AFDB9
:10635000000E0A02104380B28542C3DBA0B2F2BD38
:10636000FFFDFFFFFFFFFFFF181D0020081D00209D
:10637000101D002043010020A01D0020581D0020FA
:10638000996100002B5D0000E81D002088130000CB
:10639000301F0020001D0020F1B584B00025002929
:1063A00000D0EAE01400201DFCF73CFD0F26304031
:1063B00001285FD1201DFCF735FD0004000D13D02E
:1063C000201DFCF72FFD02AA03C27048FCF72AFD2E
:1063D0006A4603C202A803C80204120D684603C835
:1063E0000004000D824245D1201DFCF71BFD000D6D
:1063F000304013D0201DFCF715FD02AA03C26348EC
:10640000FCF710FD6A4603C202A803C8020D324021
:10641000684603C8000D0640B2422BD1201DFCF790
:1064200001FD80235B040B400FD0201DFCF7FAFC1C
:10643000000E0AD0201DFCF7F5FC06005348FCF7BF
:10644000F1FC320E000E824214D1201DFCF7EAFC52
:10645000080E80070FD5201DFCF7E4FC09040AD0C4
:10646000201DFCF7DFFC0F004848FCF7DBFCBAB24C
:1064700088B2824273D1201DFCF7D4FC080E40077D
:1064800012D5201DFCF7CEFC0802000E0CD0201DFA
:10649000FCF7C8FC0F003D48FCF7C4FC3E02320E7E
:1064A0000802000E82425AD1201DFCF7BBFC80235B
:1064B0005B050B4010D0201DFCF7B4FC000E4ED045
:1064C000201DFCF7AFFC06003048FCF7ABFC320E99
:1064D000000E824249D10125201DFCF7A3FC080FC4
:1064E000800712D5201DFCF79DFC090437D0201D24
:1064F000FCF798FC0F002548FCF794FCBAB288B270
:10650000824232D1280002250543201DFCF78AFC77
:10651000080F400715D5201DFCF784FC0802000E6B
:106520001DD0201DFCF77EFC0F001848FCF77AFCFC
:106530003E02320E0802000E824216D128000425C7
:106540000543201DFCF76EFC0726080F30420CD0D7
:10655000201DFCF767FC080F0640AE4205D16846D7
